:020000040000FA
:1000000060020020F1020000F9020000FB02000083
:10001000FD020000FF0200000103000000000000DC
:1000200000000000000000000000000003030000CA
:1000300005030000000000000703000009030000A2
:100040000B0300000D0300000F030000110300006C
:1000500013030000150300008D05000019030000C4
:100060001B0300001D0300001F030000210300000C
:1000700023030000250300002703000029030000DC
:100080002B0300002D0300002F03000031030000AC
:10009000330300003503000037030000390300007C
:1000A0003B0300003D0300003F030000410300004C
:1000B000430300004503000047030000490300001C
:1000C0004B0300004D0300004F03000051030000EC
:1000D00053030000550300005703000059030000BC
:1000E0005B0300005D030000000000005F030000F0
:1000F0006103000063030000650300006703000064
:10010000690300006B0300006D0300006F03000033
:1001100000000000000000007103000073030000F5
:100120007503000077030000790300007B030000E3
:100130007D0300007F0300008103000083030000B3
:1001400000000000000000000000000000000000AF
:100150008503000087030000890300008B03000073
:10016000000000000000000000000000000000008F
:10017000000000000000000000000000000000007F
:10018000000000000000000000000000000000006F
:10019000000000000000000000000000000000005F
:1001A000000000000000000000000000000000004F
:1001B0008D0300008F0300009103000093030000F3
:1001C0009503000097030000990300009B030000C3
:1001D0009D0300009F030000A1030000A303000093
:1001E000A5030000A7030000A90300000000000011
:1001F00000000000AB030000AD030000AF030000EF
:10020000B1030000B3030000000000000000000084
:10021000B5030000B7030000B9030000BB030000F2
:10022000BD030000BF030000C1030000C3030000C2
:10023000C5030000C7030000C9030000CB03000092
:10024000CD030000CF030000D1030000D303000062
:10025000D5030000D7030000D9030000DB03000032
:10026000DD030000DF030000E103000000F002F8FE
:1002700000F02EF80AA090E8000C82448344AAF112
:100280000107DA4501D100F023F8AFF2090EBAE810
:100290000F0013F0010F18BFFB1A43F001031847BA
:1002A0008C0400009C04000000230024002500268C
:1002B000103A28BF78C1FBD8520728BF30C148BFC9
:1002C0000B6070471FB500F024FA1FBD10B510BDBC
:1002D00000F09BF81146FFF7F5FF00F00FFA00F071
:1002E000B9F803B4FFF7F2FF03BC00F0C1F8000057
:1002F0003F4880473F480047FEE7FEE7FEE7FEE74E
:10030000FEE7FEE7FEE7FEE7FEE7FEE7FEE7FEE7C5
:10031000FEE7FEE7FEE7FEE7FEE7FEE7FEE7FEE7B5
:10032000FEE7FEE7FEE7FEE7FEE7FEE7FEE7FEE7A5
:10033000FEE7FEE7FEE7FEE7FEE7FEE7FEE7FEE795
:10034000FEE7FEE7FEE7FEE7FEE7FEE7FEE7FEE785
:10035000FEE7FEE7FEE7FEE7FEE7FEE7FEE7FEE775
:10036000FEE7FEE7FEE7FEE7FEE7FEE7FEE7FEE765
:10037000FEE7FEE7FEE7FEE7FEE7FEE7FEE7FEE755
:10038000FEE7FEE7FEE7FEE7FEE7FEE7FEE7FEE745
:10039000FEE7FEE7FEE7FEE7FEE7FEE7FEE7FEE735
:1003A000FEE7FEE7FEE7FEE7FEE7FEE7FEE7FEE725
:1003B000FEE7FEE7FEE7FEE7FEE7FEE7FEE7FEE715
:1003C000FEE7FEE7FEE7FEE7FEE7FEE7FEE7FEE705
:1003D000FEE7FEE7FEE7FEE7FEE7FEE7FEE7FEE7F5
:1003E000FEE7000004480549034A054B704700003A
:1003F000810400006D020000600000206002002007
:1004000060000020704770477047754600F02CF878
:10041000AE4605006946534620F00700854618B0F1
:1004200020B5FFF7DFFFBDE820404FF000064FF09A
:1004300000074FF000084FF0000BAC46ACE8C009D5
:10044000ACE8C009ACE8C009ACE8C00921F007017C
:100450008D46704710B50446AFF300802046BDE8D6
:100460001040FFF73EBF000000487047000000202A
:1004700001491820ABBEFEE72600020070470000CD
:1004800081B04EF68850CEF20000016841F4700150
:1004900001604EF27000C4F20F0042F61001C0F28B
:1004A000807101604EF26001C4F20F0143F6D12267
:1004B000C0F28E720A6042F64252C0F29E120A6088
:1004C00042F60001C0F28011016000200090FFE7B9
:1004D0000098C0087C2805D8FFE7FFE700980130A6
:1004E0000090F5E74EF26000C4F20F0040F6425172
:1004F000C0F29E1101604EF27000C4F20F0040F68F
:100500000001C0F28011016000200090FFE7009818
:10051000C0087C2805D8FFE7FFE70098013000906D
:10052000F5E74EF26000C4F20F0040F64251C0F20F
:10053000DE110160FFE74EF25000C4F20F000068C8
:1005400000F04000402801D0FFE7F4E74EF26000E1
:10055000C4F20F0040F24251C0F2DE1101604EF2CF
:100560007000C4F20F004FF0C071016000200090D5
:10057000FFE7009842F20F71884205D8FFE7FFE7D6
:10058000009801300090F4E701B0704780B582B068
:100590004DF24000C4F200000068C006002826D5D5
:1005A000FFE74DF20000C4F2000000688DF807007C
:1005B0004DF24400C4F20000102101609DF80700D4
:1005C00061280CDBFFE79DF807007A2807DCFFE7CE
:1005D0009DF807002038C0B200F078F806E09DF8DA
:1005E00007000130C0B200F071F8FFE7FFE702B08A
:1005F00080BD00004DF23800C4F20000016841F0F7
:10060000100101604DF23C00C4F20000016841F0AD
:10061000100101604EF20010CEF20000016841F0BE
:1006200040010160704700004EF21860C4F20F00F4
:10063000016841F0020101604EF20860C4F20F004F
:10064000016841F0020101604DF23000C4F2000087
:10065000002101604DF22402C4F200024FF4027343
:1006600013604DF22802C4F20002352313604DF6E8
:10067000C872C4F2000211604DF22C01C4F20001F4
:1006800072220A6040F20131016045F21C50C4F24E
:100690000000016841F03001016045F22850C4F2C9
:1006A0000000016821F00301016045F22040C4F21E
:1006B0000000016841F00301016045F22C50C4F2D2
:1006C0000000016841F011010160704781B00146EE
:1006D0008DF80300FFE74DF21800C4F20000006837
:1006E0008006002801D5FFE7F5E79DF803004DF2ED
:1006F0000001C4F20001086001B0704780B582B00B
:1007000000200190FFF790FFFFF774FF62B6FFE74C
:10071000FEE7F1EE100A4FF6FF71C0F2C03120EA99
:10072000010040F04070E1EE100A70473C07000005
:0C0730000000002060020000A802000091
:04000005000002F104
:00000001FF
